:100000000C9462000C948A000C948A000C948A0070
:100010000C948A000C948A000C948A000C948A0038
:100020000C948A000C948A000C948A000C948A0028
:100030000C948A000C948A000C948A000C948A0018
:100040000C9403050C948A000C94D1040C94AB041A
:100050000C948A000C948A000C948A000C948A00F8
:100060000C948A000C948A000000000024002700F1
:100070002A0000000000250028002B0000000000DE
:1000800023002600290004040404040404040202DA
:100090000202020203030303030301020408102007
:1000A0004080010204081020010204081020000012
:1000B0000008000201000003040700000000000027
:1000C00000004D0511241FBECFEFD8E0DEBFCDBF2D
:1000D00011E0A0E0B1E0ECEEFDE002C005900D9271
:1000E000A038B107D9F722E0A0E8B1E001C01D9225
:1000F000AE33B207E1F710E0C2E6D0E004C02197CA
:10010000FE010E94EE06C136D107C9F70E9497058D
:100110000C94F4060C940000FC01538D448D252FA3
:1001200030E0842F90E0821B930B541710F0CF9691
:10013000089501970895FC01918D828D981761F0C3
:10014000A28DAE0FBF2FB11D5D968C91928D9F5FDA
:100150009F73928F90E008958FEF9FEF0895FC01B9
:10016000918D828D981731F0828DE80FF11D858D6C
:1001700090E008958FEF9FEF0895FC01918D228DFF
:10018000892F90E0805C9F4F821B91098F73992784
:100190000895FC01A48DA80FB92FB11DA35ABF4F1C
:1001A0002C91848D90E001968F739927848FA68976
:1001B000B7892C93A089B1898C91837080648C93CA
:1001C000938D848D981306C00288F389E02D808179
:1001D0008F7D80830895EF92FF920F931F93CF93AB
:1001E000DF93EC0181E0888F9B8D8C8D98131AC072
:1001F000E889F989808185FF15C09FB7F894EE8959
:10020000FF896083E889F9898081837080648083B5
:100210009FBF81E090E0DF91CF911F910F91FF9000
:10022000EF900895F62E0B8D10E00F5F1F4F0F73A8
:100230001127E02E8C8D8E110CC00FB607FCFACF63
:10024000E889F989808185FFF5CFCE010E94C90038
:10025000F1CFEB8DEC0FFD2FF11DE35AFF4FF08234
:100260009FB7F8940B8FEA89FB8980818062CFCF9A
:10027000CF93DF93EC01888D8823B9F0AA89BB89DD
:10028000E889F9898C9185FD03C0808186FD0DC0C8
:100290000FB607FCF7CF8C9185FFF2CF808185FFE9
:1002A000EDCFCE010E94C900E9CFDF91CF91089533
:1002B00089E891E00E94BD0021E0892B09F420E04B
:1002C000822F089580E090E0892B29F00E94580148
:1002D00081110C9400000895AF92BF92CF92DF92EB
:1002E000EF92FF920F931F93CF93DF936C017B01EB
:1002F0008B01040F151FEB015E01AE18BF08C0177C
:10030000D10759F06991D601ED91FC910190F081EE
:10031000E02DC6010995892B79F7C501DF91CF91B1
:100320001F910F91FF90EF90DF90CF90BF90AF9013
:100330000895833081F028F4813099F08230A9F05B
:1003400008958730A9F08830C9F08430B1F48091E5
:1003500080008F7D03C0809180008F778093800024
:10036000089584B58F7784BD089584B58F7DFBCFC4
:100370008091B0008F778093B00008958091B00095
:100380008F7DF9CFCF93DF93282F30E0F901E2552D
:10039000FF4F8491F901E656FF4FD491F901EA57D6
:1003A000FF4FC491CC23A1F081110E949901EC2F41
:1003B000F0E0EE0FFF1FE458FF4FA591B491EC91D0
:1003C000ED2381E090E009F480E0DF91CF91089582
:1003D00080E090E0FACF1F93CF93DF93282F30E097
:1003E000F901E255FF4F8491F901E656FF4FD49190
:1003F000F901EA57FF4FC491CC23A9F0162F8111C0
:100400000E949901EC2FF0E0EE0FFF1FEE58FF4F16
:10041000A591B4918FB7F894EC91111108C0D095C3
:10042000DE23DC938FBFDF91CF911F910895DE2BE8
:10043000F8CFCF93DF9390E0FC01E656FF4F249175
:100440008A579F4FFC0184918823D1F090E0880F58
:10045000991FFC01E859FF4FA591B491FC01EE589A
:10046000FF4FC591D49161110EC09FB7F8948C9144
:10047000E22FE0958E238C932881E223E8839FBFAF
:10048000DF91CF9108958FB7F894EC91E22BEC9324
:100490008FBFF6CF3FB7F894809185019091860188
:1004A000A0918701B091880126B5A89B05C02F3F78
:1004B00019F00196A11DB11D3FBFBA2FA92F982F8A
:1004C0008827BC01CD01620F711D811D911D42E085
:1004D000660F771F881F991F4A95D1F708958F924D
:1004E0009F92AF92BF92CF92DF92EF92FF924B0119
:1004F0005C010E944A026B017C010E944A026C1955
:100500007D098E099F09683E734081059105A8F316
:1005100021E0821A9108A108B10888EEC80E83E094
:10052000D81EE11CF11C81149104A104B10429F727
:10053000FF90EF90DF90CF90BF90AF909F908F9003
:100540000895089590E080E00895CF93DF93EC0143
:1005500060E08E810E94EB0161E08E810E94EB01E0
:1005600060E08E810E94EB018BE891E00197F1F74A
:10057000DF91CF910895CF92DF92EF92FF920F9388
:100580001F93CF93DF936C017C0187E0E80EF11C91
:10059000D0E0C0E0062F10E0B8010C2E02C0759527
:1005A00067950A94E2F76170F70181917F010E94DB
:1005B000EB012196C430D10579F7C601DF91CF91C7
:1005C0001F910F91FF90EF90DF90CF900C94A502B8
:1005D000CF92DF92EF92FF920F931F93CF93DF930F
:1005E000EC01F62E642F8C810E94EB018D818F3FF0
:1005F00019F060E00E94EB010F2D10E08F8584FF61
:1006000025C06E0187E0C80ED11CF12CE12CB80189
:100610000E2C02C0759567950A94E2F76170F60199
:1006200081916F010E94EB01FFEFEF1AFF0A88E052
:10063000E816F10461F7CE01DF91CF911F910F9180
:10064000FF90EF90DF90CF900C94A502B80184E06A
:10065000759567958A95E1F7CE010E94BB026F2DD3
:10066000CE01DF91CF911F910F91FF90EF90DF901E
:10067000CF900C94BB0240E0682F86E292E00C948D
:10068000E80281E00E943B038BE39FE10197F1F7D1
:100690000895CF93DF93823029F4909135029860CA
:1006A000909335028093390210923A0280E480934D
:1006B0003B0280E180933C0280E580933D0261E053
:1006C00080912A020E94190280912B028F3F19F01B
:1006D00061E00E94190261E080912C020E941902DF
:1006E000C6E2D2E09E01265232408091350284FD5E
:1006F0000BC084E090E021962817390744F461E0AC
:100700008E810E941902EECF88E090E0F4CF8BE357
:100710009DE00197F1F760E080912A020E94EB01D1
:1007200060E080912C020E94EB0180912B028F3FB0
:1007300019F060E00E94EB018091350284FD34C025
:1007400063E086E292E00E94BB02CBE4D6E4CE01F5
:100750000197F1F763E086E292E00E94BB022197E5
:10076000F1F763E086E292E00E94BB0283E592E04B
:100770000197F1F762E086E292E00E94BB0280916D
:10078000350280620E943B0384E0809336028CE055
:100790000E943B030E94410382E08093370286E07F
:1007A000DF91CF910C943B0380620E943B038BE46A
:1007B00096E40197F1F78091350280620E943B0335
:1007C00083E592E00197F1F78091350280620E9403
:1007D0003B03D5CF90913902691710F06FEF690F85
:1007E000E62FF0E0EA5DFD4F9489890F80680C9454
:1007F0003B0341E00E94E80281E090E00895FB01A4
:1008000001900020E9F73197AF01461B570BDC013F
:10081000ED91FC910280F381E02D09948F929F92DB
:10082000AF92BF92EF92FF920F931F93CF93DF93FC
:10083000CDB7DEB7A1970FB6F894DEBF0FBECDBF20
:100840007C01FA01CB0119A2223008F42AE08E01C2
:100850000F5D1F4F822E912CB12CA12CBF01A50141
:1008600094010E94CC06F901CA016A300CF5605D62
:10087000D8016E938D01232B242B252B79F790E043
:1008800080E0109721F0BD01C7010E94FF03A196EF
:100890000FB6F894DEBF0FBECDBFDF91CF911F9191
:1008A0000F91FF90EF90BF90AF909F908F90089521
:1008B000695CDECFCF92DF92EF92FF920F931F938E
:1008C000CF93DF93EC016A017B01E881F98101900C
:1008D000F081E02D6DE209958C0144275527BA017E
:1008E0004C195D096E097F092AE0CE010E940E04B1
:1008F000800F911FDF91CF911F910F91FF90EF908B
:10090000DF90CF900895CF93DF93AC01990F660BE2
:10091000770B77FF10C089E891E00E945A04EC0140
:100920006EE171E089E891E00E94FF038C0F9D1F4A
:10093000DF91CF9108952AE089E891E00E940E04AA
:10094000EECFAB01770F660B770B77FD0C945A0453
:100950002AE00C940E041F920F920FB60F921124EE
:100960002F933F934F935F936F937F938F939F93B7
:10097000AF93BF93EF93FF9389E891E00E94C90082
:10098000FF91EF91BF91AF919F918F917F916F9167
:100990005F914F913F912F910F900FBE0F901F903D
:1009A00018951F920F920FB60F9211242F938F93C9
:1009B0009F93EF93FF93E0919901F0919A018081C9
:1009C000E0919F01F091A00182FD1BC09081809178
:1009D000A2018F5F8F732091A301821741F0E091F4
:1009E000A201F0E0E757FE4F958F8093A201FF919F
:1009F000EF919F918F912F910F900FBE0F901F90AD
:100A000018958081F4CF1F920F920FB60F92112488
:100A10002F933F938F939F93AF93BF9380918101C7
:100A200090918201A0918301B09184013091800165
:100A300023E0230F2D3758F50196A11DB11D2093FA
:100A400080018093810190938201A0938301B093F0
:100A500084018091850190918601A0918701B091D8
:100A600088010196A11DB11D809385019093860197
:100A7000A0938701B0938801BF91AF919F918F910F
:100A80003F912F910F900FBE0F901F90189526E861
:100A9000230F0296A11DB11DD2CFE9E8F1E0138228
:100AA000128288EE93E0A0E0B0E084839583A68371
:100AB000B78384E091E09183808385EC90E0958713
:100AC000848784EC90E09787868780EC90E0918B18
:100AD000808B81EC90E0938B828B82EC90E0958B05
:100AE000848B86EC90E0978B868B118E128E138E02
:100AF000148EE6E2F2E01382128286E191E09183A5
:100B000080838CE084838FEF85838BE0868387E00E
:100B1000878386E0808785E0818784E082871386EB
:100B2000148615861686178681E00C9449037894FE
:100B300084B5826084BD84B5816084BD85B58260E2
:100B400085BD85B5816085BD80916E008160809393
:100B50006E001092810080918100826080938100FC
:100B6000809181008160809381008091800081600C
:100B7000809380008091B10084608093B100809167
:100B8000B00081608093B00080917A00846080938F
:100B90007A0080917A00826080937A0080917A0056
:100BA000816080937A0080917A00806880937A00D7
:100BB0001092C10082E00E94490361E081E00E943E
:100BC000190261E082E00E94190261E083E00E9464
:100BD000190261E088E00E94190260E08AE00E9448
:100BE000190260E089E00E94190261E271E086E288
:100BF00092E00E94FF0361E080E00E94EA036DE260
:100C000071E086E292E00E94FF0364EF71E080E011
:100C100090E00E946F020E94410369E371E086E266
:100C200092E00E94FF0364EF71E080E090E00E9498
:100C30006F0200E010E089E00E94C201EC010E9416
:100C4000830464EF71E080E090E00E946F020E94F4
:100C5000410360E080E00E94EA03BE0186E292E088
:100C60000E94A104CD2BA1F561E083E00E94EB017D
:100C700064E670E080E090E00E946F0260E083E054
:100C80000E94EB0164E670E080E090E00E946F0259
:100C900061E081E00E94EB0164E670E080E090E0BA
:100CA0000E946F020E94410360E080E00E94EA031C
:100CB00066E471E086E292E00E94FF0361E080E07A
:100CC0000E94EA0360E571E086E292E00E94FF0381
:100CD0008AE00E94C201EC0161E081E00E94EA0327
:100CE000BE0186E292E00E94A104CE010E9483042C
:100CF000CD2B61F50E94410361E088E00E94EB0189
:100D000064E670E080E090E00E946F020E94410380
:100D100060E080E00E94EA0361E671E086E292E032
:100D20000E94FF0361E080E00E94EA036EE671E04A
:100D300086E292E00E94FF0361E082E00E94EB0104
:100D400064E670E080E090E00E946F0264E670E08C
:100D500080E090E00E946F0260E081E00E94EB0181
:100D600064E670E080E090E00E946F0260E082E064
:100D70000E94EB0164E670E080E090E00E946F0268
:100D80000115110509F457CF0E945801882309F471
:100D900052CF0E9400004FCFA1E21A2EAA1BBB1B0C
:100DA000FD010DC0AA1FBB1FEE1FFF1FA217B30737
:100DB000E407F50720F0A21BB30BE40BF50B661F4D
:100DC000771F881F991F1A9469F760957095809511
:100DD00090959B01AC01BD01CF010895EE0FFF1F5F
:0C0DE0000590F491E02D0994F894FFCFE9
:100DEC0000000000EB006C018C003801BD009B0082
:100DFC00AF0000000000F9036C01A202A1020D0A71
:100E0C0000496F54204241534544202000494E4430
:100E1C005553545249414C2000204155544F4D419B
:100E2C0054494F4E2000736572766F2052554E0018
:100E3C0049522073656E736F7220646574656374B8
:100E4C00004443204D4F544F522052554E005052A7
:100E5C004F58494D4954592044455445435400007A
:00000001FF
